{
  "_format": "hh-sol-artifact-1",
  "contractName": "SurfRental",
  "sourceName": "contracts/SurfRental.sol",
  "abi": [
    {
      "anonymous": false,
      "inputs": [
        {
          "indexed": false,
          "internalType": "uint256",
          "name": "boardId",
          "type": "uint256"
        },
        {
          "indexed": false,
          "internalType": "address",
          "name": "owner",
          "type": "address"
        },
        {
          "indexed": false,
          "internalType": "uint256",
          "name": "price",
          "type": "uint256"
        },
        {
          "indexed": false,
          "internalType": "uint256",
          "name": "deposit",
          "type": "uint256"
        }
      ],
      "name": "BoardListed",
      "type": "event"
    },
    {
      "anonymous": false,
      "inputs": [
        {
          "indexed": false,
          "internalType": "uint256",
          "name": "boardId",
          "type": "uint256"
        },
        {
          "indexed": false,
          "internalType": "address",
          "name": "renter",
          "type": "address"
        }
      ],
      "name": "BoardRented",
      "type": "event"
    },
    {
      "anonymous": false,
      "inputs": [
        {
          "indexed": false,
          "internalType": "uint256",
          "name": "boardId",
          "type": "uint256"
        }
      ],
      "name": "BoardReturned",
      "type": "event"
    },
    {
      "anonymous": false,
      "inputs": [
        {
          "indexed": false,
          "internalType": "bool",
          "name": "result",
          "type": "bool"
        }
      ],
      "name": "DepositDecision",
      "type": "event"
    },
    {
      "anonymous": false,
      "inputs": [],
      "name": "FetchBoards",
      "type": "event"
    },
    {
      "inputs": [
        {
          "internalType": "uint256",
          "name": "",
          "type": "uint256"
        }
      ],
      "name": "boards",
      "outputs": [
        {
          "internalType": "uint256",
          "name": "id",
          "type": "uint256"
        },
        {
          "internalType": "address payable",
          "name": "owner",
          "type": "address"
        },
        {
          "internalType": "string",
          "name": "description",
          "type": "string"
        },
        {
          "internalType": "uint256",
          "name": "pricePerDay",
          "type": "uint256"
        },
        {
          "internalType": "uint256",
          "name": "deposit",
          "type": "uint256"
        },
        {
          "internalType": "enum SurfRental.status",
          "name": "available",
          "type": "uint8"
        },
        {
          "internalType": "address",
          "name": "renter",
          "type": "address"
        }
      ],
      "stateMutability": "view",
      "type": "function"
    },
    {
      "inputs": [],
      "name": "getAllBoards",
      "outputs": [
        {
          "components": [
            {
              "internalType": "uint256",
              "name": "id",
              "type": "uint256"
            },
            {
              "internalType": "address payable",
              "name": "owner",
              "type": "address"
            },
            {
              "internalType": "string",
              "name": "description",
              "type": "string"
            },
            {
              "internalType": "uint256",
              "name": "pricePerDay",
              "type": "uint256"
            },
            {
              "internalType": "uint256",
              "name": "deposit",
              "type": "uint256"
            },
            {
              "internalType": "enum SurfRental.status",
              "name": "available",
              "type": "uint8"
            },
            {
              "internalType": "address",
              "name": "renter",
              "type": "address"
            }
          ],
          "internalType": "struct SurfRental.Board[]",
          "name": "",
          "type": "tuple[]"
        }
      ],
      "stateMutability": "view",
      "type": "function"
    },
    {
      "inputs": [
        {
          "internalType": "string",
          "name": "description",
          "type": "string"
        },
        {
          "internalType": "uint256",
          "name": "pricePerDay",
          "type": "uint256"
        },
        {
          "internalType": "uint256",
          "name": "deposit",
          "type": "uint256"
        }
      ],
      "name": "listBoard",
      "outputs": [],
      "stateMutability": "nonpayable",
      "type": "function"
    },
    {
      "inputs": [],
      "name": "nextBoardId",
      "outputs": [
        {
          "internalType": "uint256",
          "name": "",
          "type": "uint256"
        }
      ],
      "stateMutability": "view",
      "type": "function"
    },
    {
      "inputs": [
        {
          "internalType": "uint256",
          "name": "boardId",
          "type": "uint256"
        }
      ],
      "name": "rentBoard",
      "outputs": [],
      "stateMutability": "payable",
      "type": "function"
    },
    {
      "inputs": [],
      "name": "resetBoards",
      "outputs": [],
      "stateMutability": "nonpayable",
      "type": "function"
    },
    {
      "inputs": [
        {
          "internalType": "uint256",
          "name": "boardId",
          "type": "uint256"
        }
      ],
      "name": "returnBoard",
      "outputs": [],
      "stateMutability": "nonpayable",
      "type": "function"
    },
    {
      "inputs": [
        {
          "internalType": "uint256",
          "name": "boardId",
          "type": "uint256"
        },
        {
          "internalType": "bool",
          "name": "boardIsOk",
          "type": "bool"
        }
      ],
      "name": "returnDeposit",
      "outputs": [],
      "stateMutability": "nonpayable",
      "type": "function"
    }
  ],
  "bytecode": "0x6080604052348015600f57600080fd5b50611f908061001f6000396000f3fe60806040526004361061007b5760003560e01c8063817135e01161004e578063817135e0146101075780639a7083f9146101325780639eb08a5114610175578063ba528a1b1461019e5761007b565b80631872cd4c1461008057806337ab57c6146100ab57806338598534146100d45780633bddfd97146100eb575b600080fd5b34801561008c57600080fd5b506100956101c7565b6040516100a29190611356565b60405180910390f35b3480156100b757600080fd5b506100d260048036038101906100cd91906113f0565b610417565b005b3480156100e057600080fd5b506100e96107e1565b005b61010560048036038101906101009190611430565b6108a5565b005b34801561011357600080fd5b5061011c610b51565b604051610129919061146c565b60405180910390f35b34801561013e57600080fd5b5061015960048036038101906101549190611430565b610b57565b60405161016c97969594939291906114fe565b60405180910390f35b34801561018157600080fd5b5061019c600480360381019061019791906116a9565b610c6e565b005b3480156101aa57600080fd5b506101c560048036038101906101c09190611430565b610e47565b005b60606000805467ffffffffffffffff8111156101e6576101e561157e565b5b60405190808252806020026020018201604052801561021f57816020015b61020c610f9e565b8152602001906001900390816102045790505b50905060005b60005481101561040f57600160008281526020019081526020016000206040518060e0016040529081600082015481526020016001820160009054906101000a900473ffffffffffffffffffffffffffffffffffffffff1673ffffffffffffffffffffffffffffffffffffffff1673ffffffffffffffffffffffffffffffffffffffff1681526020016002820180546102bd90611747565b80601f01602080910402602001604051908101604052809291908181526020018280546102e990611747565b80156103365780601f1061030b57610100808354040283529160200191610336565b820191906000526020600020905b81548152906001019060200180831161031957829003601f168201915b5050505050815260200160038201548152602001600482015481526020016005820160009054906101000a900460ff1660028111156103785761037761118c565b5b600281111561038a5761038961118c565b5b81526020016005820160019054906101000a900473ffffffffffffffffffffffffffffffffffffffff1673ffffffffffffffffffffffffffffffffffffffff1673ffffffffffffffffffffffffffffffffffffffff16815250508282815181106103f7576103f6611778565b5b60200260200101819052508080600101915050610225565b508091505090565b81600054811061045c576040517f08c379a0000000000000000000000000000000000000000000000000000000008152600401610453906117f3565b60405180910390fd5b60006001600085815260200190815260200160002090508060010160009054906101000a900473ffffffffffffffffffffffffffffffffffffffff1673ffffffffffffffffffffffffffffffffffffffff163373ffffffffffffffffffffffffffffffffffffffff1614610505576040517f08c379a00000000000000000000000000000000000000000000000000000000081526004016104fc90611885565b60405180910390fd5b600160028111156105195761051861118c565b5b8160050160009054906101000a900460ff16600281111561053d5761053c61118c565b5b1461057d576040517f08c379a0000000000000000000000000000000000000000000000000000000008152600401610574906118f1565b60405180910390fd5b821561065d5760008160050160019054906101000a900473ffffffffffffffffffffffffffffffffffffffff1673ffffffffffffffffffffffffffffffffffffffff1682600401546040516105d190611942565b60006040518083038185875af1925050503d806000811461060e576040519150601f19603f3d011682016040523d82523d6000602084013e610613565b606091505b5050905080610657576040517f08c379a000000000000000000000000000000000000000000000000000000000815260040161064e906119a3565b60405180910390fd5b50610733565b60008160010160009054906101000a900473ffffffffffffffffffffffffffffffffffffffff1673ffffffffffffffffffffffffffffffffffffffff1682600401546040516106ab90611942565b60006040518083038185875af1925050503d80600081146106e8576040519150601f19603f3d011682016040523d82523d6000602084013e6106ed565b606091505b5050905080610731576040517f08c379a000000000000000000000000000000000000000000000000000000000815260040161072890611a0f565b60405180910390fd5b505b60008160050160016101000a81548173ffffffffffffffffffffffffffffffffffffffff021916908373ffffffffffffffffffffffffffffffffffffffff16021790555060008160050160006101000a81548160ff0219169083600281111561079f5761079e61118c565b5b02179055507f8c883d13441229ae4323ce6ae3d1386f9b303a9643f209e7ad4cdc0e3ec18013836040516107d39190611a3e565b60405180910390a150505050565b60005b60005481101561089b57600160008281526020019081526020016000206000808201600090556001820160006101000a81549073ffffffffffffffffffffffffffffffffffffffff02191690556002820160006108419190611019565b600382016000905560048201600090556005820160006101000a81549060ff02191690556005820160016101000a81549073ffffffffffffffffffffffffffffffffffffffff0219169055505080806001019150506107e4565b5060008081905550565b8060005481106108ea576040517f08c379a00000000000000000000000000000000000000000000000000000000081526004016108e1906117f3565b60405180910390fd5b6000600160008481526020019081526020016000209050600060028111156109155761091461118c565b5b8160050160009054906101000a900460ff1660028111156109395761093861118c565b5b14610979576040517f08c379a000000000000000000000000000000000000000000000000000000000815260040161097090611aa5565b60405180910390fd5b8060040154816003015461098d9190611af4565b34146109ce576040517f08c379a00000000000000000000000000000000000000000000000000000000081526004016109c590611b9a565b60405180910390fd5b60028160050160006101000a81548160ff021916908360028111156109f6576109f561118c565b5b0217905550338160050160016101000a81548173ffffffffffffffffffffffffffffffffffffffff021916908373ffffffffffffffffffffffffffffffffffffffff16021790555060008160010160009054906101000a900473ffffffffffffffffffffffffffffffffffffffff1673ffffffffffffffffffffffffffffffffffffffff168260030154604051610a8c90611942565b60006040518083038185875af1925050503d8060008114610ac9576040519150601f19603f3d011682016040523d82523d6000602084013e610ace565b606091505b5050905080610b12576040517f08c379a0000000000000000000000000000000000000000000000000000000008152600401610b0990611a0f565b60405180910390fd5b7f5dff8c9bfa27cb7e4a44bdc9f48a14b089ee56b543f521655fde8f7ce1fe2a388433604051610b43929190611bba565b60405180910390a150505050565b60005481565b60016020528060005260406000206000915090508060000154908060010160009054906101000a900473ffffffffffffffffffffffffffffffffffffffff1690806002018054610ba690611747565b80601f0160208091040260200160405190810160405280929190818152602001828054610bd290611747565b8015610c1f5780601f10610bf457610100808354040283529160200191610c1f565b820191906000526020600020905b815481529060010190602001808311610c0257829003601f168201915b5050505050908060030154908060040154908060050160009054906101000a900460ff16908060050160019054906101000a900473ffffffffffffffffffffffffffffffffffffffff16905087565b6040518060e0016040528060005481526020013373ffffffffffffffffffffffffffffffffffffffff16815260200184815260200183815260200182815260200160006002811115610cc357610cc261118c565b5b8152602001600073ffffffffffffffffffffffffffffffffffffffff1681525060016000805481526020019081526020016000206000820151816000015560208201518160010160006101000a81548173ffffffffffffffffffffffffffffffffffffffff021916908373ffffffffffffffffffffffffffffffffffffffff1602179055506040820151816002019081610d5d9190611d8f565b50606082015181600301556080820151816004015560a08201518160050160006101000a81548160ff02191690836002811115610d9d57610d9c61118c565b5b021790555060c08201518160050160016101000a81548173ffffffffffffffffffffffffffffffffffffffff021916908373ffffffffffffffffffffffffffffffffffffffff1602179055509050507f5d874e1df62f144b50447ead78e2556906143ae709b5f2a5baed1243f3c52442600054338484604051610e239493929190611e61565b60405180910390a1600080815480929190610e3d90611ea6565b9190505550505050565b806000548110610e8c576040517f08c379a0000000000000000000000000000000000000000000000000000000008152600401610e83906117f3565b60405180910390fd5b60006001600084815260200190815260200160002090508060050160019054906101000a900473ffffffffffffffffffffffffffffffffffffffff1673ffffffffffffffffffffffffffffffffffffffff163373ffffffffffffffffffffffffffffffffffffffff1614610f35576040517f08c379a0000000000000000000000000000000000000000000000000000000008152600401610f2c90611f3a565b60405180910390fd5b60018160050160006101000a81548160ff02191690836002811115610f5d57610f5c61118c565b5b02179055507ff86a0075d03661f61e46c8382af57fbc419656a00ae13b6e75991b9c9b2da82c83604051610f91919061146c565b60405180910390a1505050565b6040518060e0016040528060008152602001600073ffffffffffffffffffffffffffffffffffffffff16815260200160608152602001600081526020016000815260200160006002811115610ff657610ff561118c565b5b8152602001600073ffffffffffffffffffffffffffffffffffffffff1681525090565b50805461102590611747565b6000825580601f106110375750611056565b601f0160209004906000526020600020908101906110559190611059565b5b50565b5b8082111561107257600081600090555060010161105a565b5090565b600081519050919050565b600082825260208201905092915050565b6000819050602082019050919050565b6000819050919050565b6110b5816110a2565b82525050565b600073ffffffffffffffffffffffffffffffffffffffff82169050919050565b60006110e6826110bb565b9050919050565b6110f6816110db565b82525050565b600081519050919050565b600082825260208201905092915050565b60005b8381101561113657808201518184015260208101905061111b565b60008484015250505050565b6000601f19601f8301169050919050565b600061115e826110fc565b6111688185611107565b9350611178818560208601611118565b61118181611142565b840191505092915050565b7f4e487b7100000000000000000000000000000000000000000000000000000000600052602160045260246000fd5b600381106111cc576111cb61118c565b5b50565b60008190506111dd826111bb565b919050565b60006111ed826111cf565b9050919050565b6111fd816111e2565b82525050565b600061120e826110bb565b9050919050565b61121e81611203565b82525050565b600060e08301600083015161123c60008601826110ac565b50602083015161124f60208601826110ed565b50604083015184820360408601526112678282611153565b915050606083015161127c60608601826110ac565b50608083015161128f60808601826110ac565b5060a08301516112a260a08601826111f4565b5060c08301516112b560c0860182611215565b508091505092915050565b60006112cc8383611224565b905092915050565b6000602082019050919050565b60006112ec82611076565b6112f68185611081565b93508360208202850161130885611092565b8060005b85811015611344578484038952815161132585826112c0565b9450611330836112d4565b925060208a0199505060018101905061130c565b50829750879550505050505092915050565b6000602082019050818103600083015261137081846112e1565b905092915050565b6000604051905090565b600080fd5b600080fd5b611395816110a2565b81146113a057600080fd5b50565b6000813590506113b28161138c565b92915050565b60008115159050919050565b6113cd816113b8565b81146113d857600080fd5b50565b6000813590506113ea816113c4565b92915050565b6000806040838503121561140757611406611382565b5b6000611415858286016113a3565b9250506020611426858286016113db565b9150509250929050565b60006020828403121561144657611445611382565b5b6000611454848285016113a3565b91505092915050565b611466816110a2565b82525050565b6000602082019050611481600083018461145d565b92915050565b611490816110db565b82525050565b600082825260208201905092915050565b60006114b2826110fc565b6114bc8185611496565b93506114cc818560208601611118565b6114d581611142565b840191505092915050565b6114e9816111e2565b82525050565b6114f881611203565b82525050565b600060e082019050611513600083018a61145d565b6115206020830189611487565b818103604083015261153281886114a7565b9050611541606083018761145d565b61154e608083018661145d565b61155b60a08301856114e0565b61156860c08301846114ef565b98975050505050505050565b600080fd5b600080fd5b7f4e487b7100000000000000000000000000000000000000000000000000000000600052604160045260246000fd5b6115b682611142565b810181811067ffffffffffffffff821117156115d5576115d461157e565b5b80604052505050565b60006115e8611378565b90506115f482826115ad565b919050565b600067ffffffffffffffff8211156116145761161361157e565b5b61161d82611142565b9050602081019050919050565b82818337600083830152505050565b600061164c611647846115f9565b6115de565b90508281526020810184848401111561166857611667611579565b5b61167384828561162a565b509392505050565b600082601f8301126116905761168f611574565b5b81356116a0848260208601611639565b91505092915050565b6000806000606084860312156116c2576116c1611382565b5b600084013567ffffffffffffffff8111156116e0576116df611387565b5b6116ec8682870161167b565b93505060206116fd868287016113a3565b925050604061170e868287016113a3565b9150509250925092565b7f4e487b7100000000000000000000000000000000000000000000000000000000600052602260045260246000fd5b6000600282049050600182168061175f57607f821691505b60208210810361177257611771611718565b5b50919050565b7f4e487b7100000000000000000000000000000000000000000000000000000000600052603260045260246000fd5b7f426f61726420646f6573206e6f74206578697374000000000000000000000000600082015250565b60006117dd601483611496565b91506117e8826117a7565b602082019050919050565b6000602082019050818103600083015261180c816117d0565b9050919050565b7f4f6e6c7920626f617264206f776e65722063616e20646563696465206f6e206460008201527f65706f7369740000000000000000000000000000000000000000000000000000602082015250565b600061186f602683611496565b915061187a82611813565b604082019050919050565b6000602082019050818103600083015261189e81611862565b9050919050565b7f426f617264206d7573742062652072657475726e656420666972737400000000600082015250565b60006118db601c83611496565b91506118e6826118a5565b602082019050919050565b6000602082019050818103600083015261190a816118ce565b9050919050565b600081905092915050565b50565b600061192c600083611911565b91506119378261191c565b600082019050919050565b600061194d8261191f565b9150819050919050565b7f5472616e7366657220746f2072656e746572206661696c656400000000000000600082015250565b600061198d601983611496565b915061199882611957565b602082019050919050565b600060208201905081810360008301526119bc81611980565b9050919050565b7f5472616e7366657220746f206f776e6572206661696c65640000000000000000600082015250565b60006119f9601883611496565b9150611a04826119c3565b602082019050919050565b60006020820190508181036000830152611a28816119ec565b9050919050565b611a38816113b8565b82525050565b6000602082019050611a536000830184611a2f565b92915050565b7f426f617264206973206e6f742079657420726561647900000000000000000000600082015250565b6000611a8f601683611496565b9150611a9a82611a59565b602082019050919050565b60006020820190508181036000830152611abe81611a82565b9050919050565b7f4e487b7100000000000000000000000000000000000000000000000000000000600052601160045260246000fd5b6000611aff826110a2565b9150611b0a836110a2565b9250828201905080821115611b2257611b21611ac5565b5b92915050565b7f496e636f7272656374207061796d656e742028636865636b20796f757220646560008201527f706f7369743f3f29000000000000000000000000000000000000000000000000602082015250565b6000611b84602883611496565b9150611b8f82611b28565b604082019050919050565b60006020820190508181036000830152611bb381611b77565b9050919050565b6000604082019050611bcf600083018561145d565b611bdc60208301846114ef565b9392505050565b60008190508160005260206000209050919050565b60006020601f8301049050919050565b600082821b905092915050565b600060088302611c457fffffffffffffffffffffffffffffffffffffffffffffffffffffffffffffffff82611c08565b611c4f8683611c08565b95508019841693508086168417925050509392505050565b6000819050919050565b6000611c8c611c87611c82846110a2565b611c67565b6110a2565b9050919050565b6000819050919050565b611ca683611c71565b611cba611cb282611c93565b848454611c15565b825550505050565b600090565b611ccf611cc2565b611cda818484611c9d565b505050565b5b81811015611cfe57611cf3600082611cc7565b600181019050611ce0565b5050565b601f821115611d4357611d1481611be3565b611d1d84611bf8565b81016020851015611d2c578190505b611d40611d3885611bf8565b830182611cdf565b50505b505050565b600082821c905092915050565b6000611d6660001984600802611d48565b1980831691505092915050565b6000611d7f8383611d55565b9150826002028217905092915050565b611d98826110fc565b67ffffffffffffffff811115611db157611db061157e565b5b611dbb8254611747565b611dc6828285611d02565b600060209050601f831160018114611df95760008415611de7578287015190505b611df18582611d73565b865550611e59565b601f198416611e0786611be3565b60005b82811015611e2f57848901518255600182019150602085019450602081019050611e0a565b86831015611e4c5784890151611e48601f891682611d55565b8355505b6001600288020188555050505b505050505050565b6000608082019050611e76600083018761145d565b611e8360208301866114ef565b611e90604083018561145d565b611e9d606083018461145d565b95945050505050565b6000611eb1826110a2565b91507fffffffffffffffffffffffffffffffffffffffffffffffffffffffffffffffff8203611ee357611ee2611ac5565b5b600182019050919050565b7f4e6f742072656e74657200000000000000000000000000000000000000000000600082015250565b6000611f24600a83611496565b9150611f2f82611eee565b602082019050919050565b60006020820190508181036000830152611f5381611f17565b905091905056fea26469706673582212200b33d862070cae1a71819a1c3c404e1ec0943f33636fde05cc6a552513f2a0d664736f6c634300081c0033",
  "linkReferences": {},
  "deployedLinkReferences": {}
}